:100000000C94AD000C94BF000C94BF000C94BF0086
:100010000C94BF000C94BF000C94BF000C94BF0064
:100020000C94BF000C94BF000C94BF000C94BF0054
:100030000C94BF000C94BF000C94BF000C94BF0044
:100040000C94BF000C94BF000C9482010C94BF0070
:100050000C94BF000C94BF000C94BF000C94BF0024
:100060000C94BF000C94BF000C94BF000C94BF0014
:100070000C94BF000C94BF000C94BF000C94BF0004
:100080000C94BF000C94BF000C94BF000C94BF00F4
:100090000C94BF000C94BF000C94BF000C94BF00E4
:1000A0000C94BF000C94BF000C94BF000C94BF00D4
:1000B0000C94BF000C94BF000C94BF000C94BF00C4
:1000C0000C94BF000C94BF000C94BF0000002100F2
:1000D000240027002A002D0000002200250028000F
:1000E0002B002E0002020202020202020404040497
:1000F00004040404030303030303030301010101D4
:1001000001010101050505050505050102040810A9
:1001100020408001020408102040800102040810E1
:1001200020408001020408102040800102040810D1
:1001300020400000000203000A0B0000000005043C
:100140000908000000000D00000000000000000091
:100150000000000000000000000011241FBECFEFCF
:10016000D8E0DEBFCDBF21E0A0E0B1E001C01D922C
:10017000A930B207E1F70E94CC010C943A020C942A
:100180000000EEE3F1E02491E7E1F1E03491E0EFEB
:10019000F0E09491992309F42EC02223D9F0225043
:1001A0002D30C0F4E22FF0E0E852FF4F0C943402FF
:1001B0001E012201E500FC00EA00EA000001060140
:1001C0000A011001EA0014011A01209180002F7722
:1001D00020938000E92FF0E0EE0FFF1FE852FF4F61
:1001E000A591B4919FB7F894EC9181112EC03095F0
:1001F0003E233C939FBF0895209180002F7DE8CF40
:100200002091B0002F772093B000E4CF2091B00070
:100210002F7DF9CF209190002F7720939000DACF97
:10022000209190002F7DF9CF2091A0002F7720936F
:10023000A000D0CF2091A0002F7DF9CF24B52F773B
:1002400024BDC8CF24B52F7DFBCF3E2BD2CF3FB7E7
:10025000F8948091050190910601A0910701B09159
:10026000080126B5A89B05C02F3F19F00196A11DD6
:10027000B11D3FBFBA2FA92F982F8827BC01CD01F0
:10028000620F711D811D911D42E0660F771F881F4F
:10029000991F4A95D1F708958F929F92AF92BF927E
:1002A000CF92DF92EF92FF920E9427014B015C01F7
:1002B00088EEC82E83E0D82EE12CF12C0E94270175
:1002C000681979098A099B09683E7340810591057F
:1002D000A8F321E0C21AD108E108F10888EE880EDF
:1002E00083E0981EA11CB11CC114D104E104F104E7
:1002F00029F7FF90EF90DF90CF90BF90AF909F9045
:100300008F9008951F920F920FB60F9211242F9382
:100310003F938F939F93AF93BF93809101019091EF
:100320000201A0910301B09104013091000123E08A
:10033000230F2D3768F126E8230F0296A11DB11D6A
:10034000209300018093010190930201A093030187
:10035000B09304018091050190910601A0910701DD
:10036000B09108010196A11DB11D809305019093E4
:100370000601A0930701B0930801BF91AF919F912F
:100380008F913F912F910F900FBE0F901F90189556
:100390000196A11DB11DD4CF789484B5836084BD2E
:1003A00085B5836085BD80916E00816080936E000D
:1003B00082E0809381008091810081608093810040
:1003C000809180008160809380008091B100846082
:1003D0008093B1008091B00081608093B0008091E3
:1003E0009100836080939100809190008160809360
:1003F00090008091A10083608093A1008091A00073
:1004000081608093A00087E880937A001092C100F9
:10041000E7E1F1E02491E0EFF0E08491882399F0A6
:1004200090E0880F991FFC01E453FF4FA591B49110
:10043000FC01E852FF4F859194918FB7F894EC91AD
:10044000E22BEC938FBFC0E0D0E080E00E94C100BF
:100450000E944C0181E00E94C1000E944C01209743
:10046000A1F30E940000F1CFEE0FFF1F0590F49161
:08047000E02D0994F894FFCF80
:00000001FF
