:100000000C9466000C9483000C9483000C94830081
:100010000C9483000C9483000C9483000C94830054
:100020000C9483000C9483000C9483000C94830044
:100030000C9483000C9483000C9483000C94830034
:100040000C9483000C9483000C9483000C94830024
:100050000C9485000C9483000C9483000C94830012
:100060000C9483000C9483000C9483000C94830004
:100070000C9483000C9483000C9483000C948300F4
:100080000C9483000C9483000C9483000C948300E4
:100090000C9483000C9483000C9483000C948300D4
:1000A0000C9483000C9483000C9483000C948300C4
:1000B0000C9483000C9483000C9483000C948300B4
:1000C0000C9483000C9483000C94830011241FBEB5
:1000D000CFEFD8E0DEBFCDBF11E0A0E0B1E0EAEFA6
:1000E000F2E002C005900D92A637B107D9F721E0E2
:1000F000A6E7B1E001C01D92A937B207E1F70E945F
:1001000000010C947B010C9400001F920F920FB61B
:100110000F9211242F938F939F93AF93BF93EF93DD
:10012000FF93CF93DF93CDB7DEB7A697DEBFCDBFEA
:100130008091C600909177019F34E1F5863411F5E6
:1001400090917801963499F596E2EBE3F1E0DE01C7
:10015000119601900D929A95E1F7FE0131969191D9
:10016000992339F02091C00025FFFCCF9093C60061
:10017000F6CF90E59093770197E59093780191E021
:100180009093760195E1E1E6F1E0DE0111960190B0
:100190000D929A95E1F7FE0131969191992379F0AC
:1001A0002091C00025FFFCCF9093C600F6CF80932E
:1001B0007801E8CF8F3431F780937701E3CF9091C6
:1001C000C00095FFFCCF8093C6008091C00085FFE2
:1001D000FCCF8DE08093C600A6960FB6F894DEBFE4
:1001E0000FBECDBFDF91CF91FF91EF91BF91AF9146
:1001F0009F918F912F910F900FBE0F901F90189588
:10020000CF93DF93CDB7DEB7EB970FB6F894DEBF91
:100210000FBECDBF80E58093770187E5809378019D
:100220001092C50081E88093C4001092C00088E954
:100230008093C10087E08093C20078948DE0E0E075
:10024000F1E0DE019F9601900D928A95E1F7FE01A3
:10025000BF968191882339F09091C00095FFFCCF23
:100260008093C600F6CF82E1EDE0F1E0DE015D961D
:1002700001900D928A95E1F79AE02DE0FE017D96BE
:100280008191882339F03091C00035FFFCCF8093F5
:10029000C600F6CF8091C00085FFFCCF9093C600CA
:1002A0008091C00085FFFCCF2093C6003FEF41EE58
:1002B00084E0315040408040E1F700C00000809170
:1002C00076018823D9F28CE1EFE1F1E0DE011196AD
:1002D00001900D928A95E1F7FE0131968191882374
:1002E00039F03091C00035FFFCCF8093C600F6CFC7
:0A02F0000C940000C3CFF894FFCF78
:1002FA004C6F6F7020726561636865640048656C55
:10030A006C6F2066726F6D2041546D656761004A9B
:10031A00756D70696E6720746F206F7468657220DE
:10032A0070726F6772616D2E200A00507265746573
:10033A006E6420746869732069732061207368751C
:10034A0074646F776E206D6573736167652E200A1A
:10035A0000436861726163746572207265636965DE
:06036A007665643A2000F4
:00000001FF
