:100000000C9466000C9470000C9470000C947000BA
:100010000C9470000C9470000C9470000C947000A0
:100020000C9470000C9470000C9470000C94700090
:100030000C9470000C9470000C9470000C94700080
:100040000C9470000C9470000C9470000C94700070
:100050000C9470000C9470000C9470000C94700060
:100060000C9470000C9470000C9470000C94700050
:100070000C9470000C9470000C9470000C94700040
:100080000C9470000C9470000C9470000C94700030
:100090000C9470000C9470000C9470000C94700020
:1000A0000C9470000C9470000C9470000C94700010
:1000B0000C9470000C9470000C9470000C94700000
:1000C0000C9470000C9470000C94700011241FBEEE
:1000D000CFEFD8E0DEBFCDBF0E9472000C9481004C
:1000E0000C940000209A91E085B1892785B92FEF03
:1000F00039E688E1215030408040E1F700C000003F
:06010000F3CFF894FFCFDD
:00000001FF
