:100000000C9466000C947B000C947B000C947B0099
:100010000C947B000C947B000C947B000C947B0074
:100020000C947B000C947B000C947B000C947B0064
:100030000C947B000C947B000C947B000C947B0054
:100040000C947B000C947B000C947B000C947B0044
:100050000C947B000C947B000C947B000C947B0034
:100060000C947B000C947B000C947B000C947B0024
:100070000C947B000C947B000C947B000C947B0014
:100080000C947B000C947B000C947B000C947B0004
:100090000C947B000C947B000C947B000C947B00F4
:1000A0000C947B000C947B000C947B000C947B00E4
:1000B0000C947B000C947B000C947B000C947B00D4
:1000C0000C947B000C947B000C947B0011241FBECD
:1000D000CFEFD8E0DEBFCDBF11E0A0E0B1E0EAE5B0
:1000E000F1E002C005900D92AC30B107D9F70E9443
:1000F0007D000C94AB000C940000CF93DF93CDB740
:10010000DEB72C970FB6F894DEBF0FBECDBF8CE0E4
:10011000E0E0F1E09E012F5F3F4FD90101900D9289
:100120008A95E1F790E080E0F901821B930BAC0126
:100130004E0F5F1F6191662339F04091C00045FF6B
:10014000FCCF6093C600F3CF4233510514F00C94FA
:0A0150000038CA01E9CFF894FFCF90
:0C015A0050726F6772616D2032200A0045
:00000001FF
