:100000000C9466000C947B000C947B000C947B0099
:100010000C947B000C947B000C947B000C947B0074
:100020000C947B000C947B000C947B000C947B0064
:100030000C947B000C947B000C947B000C947B0054
:100040000C947B000C947B000C947B000C947B0044
:100050000C947B000C947B000C947B000C947B0034
:100060000C947B000C947B000C947B000C947B0024
:100070000C947B000C947B000C947B000C947B0014
:100080000C947B000C947B000C947B000C947B0004
:100090000C947B000C947B000C947B000C947B00F4
:1000A0000C947B000C947B000C947B000C947B00E4
:1000B0000C947B000C947B000C947B000C947B00D4
:1000C0000C947B000C947B000C947B0011241FBECD
:1000D000CFEFD8E0DEBFCDBF11E0A0E0B1E0E8E8AF
:1000E000F1E002C005900D92AE31B107D9F70E9440
:1000F0007D000C94C2000C940000CF93DF93CDB729
:10010000DEB76E970FB6F894DEBF0FBECDBF10926C
:10011000C50081E88093C4001092C00088E98093F4
:10012000C10087E08093C20078948EE1E0E0F1E0C6
:10013000DE01119601900D928A95E1F72AE09DE08B
:10014000FE0131968191882339F03091C00035FF4E
:10015000FCCF8093C600F6CF8091C00085FFFCCF16
:100160002093C6008091C00085FFFCCF9093C6000D
:100170003FEF41EE84E0315040408040E1F700C065
:080180000000DECFF894FFCF70
:10018800436F646520696D706F7274656420667270
:0E0198006F6D206F746865722066696C65007B
:00000001FF
